{
  "_format": "hh-sol-artifact-1",
  "contractName": "BountyEscrow",
  "sourceName": "contracts/BountyEscrow.sol",
  "abi": [
    {
      "inputs": [
        {
          "internalType": "address",
          "name": "tokenAddress",
          "type": "address"
        },
        {
          "internalType": "address",
          "name": "initialOwner",
          "type": "address"
        }
      ],
      "stateMutability": "nonpayable",
      "type": "constructor"
    },
    {
      "anonymous": false,
      "inputs": [
        {
          "indexed": true,
          "internalType": "uint256",
          "name": "bountyId",
          "type": "uint256"
        },
        {
          "indexed": true,
          "internalType": "address",
          "name": "creator",
          "type": "address"
        },
        {
          "indexed": false,
          "internalType": "uint256",
          "name": "amount",
          "type": "uint256"
        },
        {
          "indexed": false,
          "internalType": "string",
          "name": "issueUrl",
          "type": "string"
        }
      ],
      "name": "BountyCreated",
      "type": "event"
    },
    {
      "anonymous": false,
      "inputs": [
        {
          "indexed": true,
          "internalType": "uint256",
          "name": "bountyId",
          "type": "uint256"
        },
        {
          "indexed": false,
          "internalType": "bool",
          "name": "approved",
          "type": "bool"
        },
        {
          "indexed": true,
          "internalType": "address",
          "name": "payoutTo",
          "type": "address"
        },
        {
          "indexed": false,
          "internalType": "uint256",
          "name": "amount",
          "type": "uint256"
        }
      ],
      "name": "BountyResolved",
      "type": "event"
    },
    {
      "anonymous": false,
      "inputs": [
        {
          "indexed": true,
          "internalType": "address",
          "name": "previousOwner",
          "type": "address"
        },
        {
          "indexed": true,
          "internalType": "address",
          "name": "newOwner",
          "type": "address"
        }
      ],
      "name": "OwnerUpdated",
      "type": "event"
    },
    {
      "anonymous": false,
      "inputs": [
        {
          "indexed": true,
          "internalType": "uint256",
          "name": "bountyId",
          "type": "uint256"
        },
        {
          "indexed": true,
          "internalType": "address",
          "name": "solver",
          "type": "address"
        },
        {
          "indexed": false,
          "internalType": "string",
          "name": "prUrl",
          "type": "string"
        }
      ],
      "name": "SolutionSubmitted",
      "type": "event"
    },
    {
      "inputs": [
        {
          "internalType": "uint256",
          "name": "",
          "type": "uint256"
        }
      ],
      "name": "bounties",
      "outputs": [
        {
          "internalType": "uint256",
          "name": "id",
          "type": "uint256"
        },
        {
          "internalType": "address",
          "name": "creator",
          "type": "address"
        },
        {
          "internalType": "string",
          "name": "issueUrl",
          "type": "string"
        },
        {
          "internalType": "uint256",
          "name": "amount",
          "type": "uint256"
        },
        {
          "internalType": "enum BountyEscrow.Status",
          "name": "status",
          "type": "uint8"
        },
        {
          "internalType": "address",
          "name": "solver",
          "type": "address"
        },
        {
          "internalType": "string",
          "name": "prUrl",
          "type": "string"
        },
        {
          "internalType": "bool",
          "name": "approved",
          "type": "bool"
        },
        {
          "internalType": "uint256",
          "name": "createdAt",
          "type": "uint256"
        },
        {
          "internalType": "uint256",
          "name": "resolvedAt",
          "type": "uint256"
        }
      ],
      "stateMutability": "view",
      "type": "function"
    },
    {
      "inputs": [
        {
          "internalType": "string",
          "name": "issueUrl",
          "type": "string"
        },
        {
          "internalType": "uint256",
          "name": "amount",
          "type": "uint256"
        }
      ],
      "name": "createBounty",
      "outputs": [
        {
          "internalType": "uint256",
          "name": "bountyId",
          "type": "uint256"
        }
      ],
      "stateMutability": "nonpayable",
      "type": "function"
    },
    {
      "inputs": [
        {
          "internalType": "uint256",
          "name": "bountyId",
          "type": "uint256"
        }
      ],
      "name": "getBounty",
      "outputs": [
        {
          "components": [
            {
              "internalType": "uint256",
              "name": "id",
              "type": "uint256"
            },
            {
              "internalType": "address",
              "name": "creator",
              "type": "address"
            },
            {
              "internalType": "string",
              "name": "issueUrl",
              "type": "string"
            },
            {
              "internalType": "uint256",
              "name": "amount",
              "type": "uint256"
            },
            {
              "internalType": "enum BountyEscrow.Status",
              "name": "status",
              "type": "uint8"
            },
            {
              "internalType": "address",
              "name": "solver",
              "type": "address"
            },
            {
              "internalType": "string",
              "name": "prUrl",
              "type": "string"
            },
            {
              "internalType": "bool",
              "name": "approved",
              "type": "bool"
            },
            {
              "internalType": "uint256",
              "name": "createdAt",
              "type": "uint256"
            },
            {
              "internalType": "uint256",
              "name": "resolvedAt",
              "type": "uint256"
            }
          ],
          "internalType": "struct BountyEscrow.Bounty",
          "name": "",
          "type": "tuple"
        }
      ],
      "stateMutability": "view",
      "type": "function"
    },
    {
      "inputs": [],
      "name": "nextBountyId",
      "outputs": [
        {
          "internalType": "uint256",
          "name": "",
          "type": "uint256"
        }
      ],
      "stateMutability": "view",
      "type": "function"
    },
    {
      "inputs": [],
      "name": "owner",
      "outputs": [
        {
          "internalType": "address",
          "name": "",
          "type": "address"
        }
      ],
      "stateMutability": "view",
      "type": "function"
    },
    {
      "inputs": [
        {
          "internalType": "uint256",
          "name": "bountyId",
          "type": "uint256"
        },
        {
          "internalType": "bool",
          "name": "approved",
          "type": "bool"
        }
      ],
      "name": "resolveBounty",
      "outputs": [],
      "stateMutability": "nonpayable",
      "type": "function"
    },
    {
      "inputs": [
        {
          "internalType": "address",
          "name": "newOwner",
          "type": "address"
        }
      ],
      "name": "setOwner",
      "outputs": [],
      "stateMutability": "nonpayable",
      "type": "function"
    },
    {
      "inputs": [
        {
          "internalType": "uint256",
          "name": "bountyId",
          "type": "uint256"
        },
        {
          "internalType": "string",
          "name": "prUrl",
          "type": "string"
        }
      ],
      "name": "submitSolution",
      "outputs": [],
      "stateMutability": "nonpayable",
      "type": "function"
    },
    {
      "inputs": [],
      "name": "token",
      "outputs": [
        {
          "internalType": "contract IERC20",
          "name": "",
          "type": "address"
        }
      ],
      "stateMutability": "view",
      "type": "function"
    }
  ],
  "bytecode": "0x60a0604052600180553480156200001557600080fd5b50604051620027173803806200271783398181016040528101906200003b919062000205565b600073ffffffffffffffffffffffffffffffffffffffff168273ffffffffffffffffffffffffffffffffffffffff1603620000ad576040517f08c379a0000000000000000000000000000000000000000000000000000000008152600401620000a490620002ad565b60405180910390fd5b600073ffffffffffffffffffffffffffffffffffffffff168173ffffffffffffffffffffffffffffffffffffffff16036200011f576040517f08c379a000000000000000000000000000000000000000000000000000000000815260040162000116906200031f565b60405180910390fd5b8173ffffffffffffffffffffffffffffffffffffffff1660808173ffffffffffffffffffffffffffffffffffffffff1681525050806000806101000a81548173ffffffffffffffffffffffffffffffffffffffff021916908373ffffffffffffffffffffffffffffffffffffffff160217905550505062000341565b600080fd5b600073ffffffffffffffffffffffffffffffffffffffff82169050919050565b6000620001cd82620001a0565b9050919050565b620001df81620001c0565b8114620001eb57600080fd5b50565b600081519050620001ff81620001d4565b92915050565b600080604083850312156200021f576200021e6200019b565b5b60006200022f85828601620001ee565b92505060206200024285828601620001ee565b9150509250929050565b600082825260208201905092915050565b7f746f6b656e3d3000000000000000000000000000000000000000000000000000600082015250565b6000620002956007836200024c565b9150620002a2826200025d565b602082019050919050565b60006020820190508181036000830152620002c88162000286565b9050919050565b7f6f776e65723d3000000000000000000000000000000000000000000000000000600082015250565b6000620003076007836200024c565b91506200031482620002cf565b602082019050919050565b600060208201905081810360008301526200033a81620002f8565b9050919050565b6080516123ac6200036b6000396000818161046401528181610a4801526111b901526123ac6000f3fe608060405234801561001057600080fd5b50600436106100935760003560e01c8063d3b5c01611610066578063d3b5c0161461011e578063dc2f87441461013a578063ee8c4bbf14610173578063fc0c546a146101a3578063fd14fad4146101c157610093565b806313af4035146100985780638da5cb5b146100b4578063b83a3bc1146100d2578063cadde05f14610102575b600080fd5b6100b260048036038101906100ad91906112dc565b6101df565b005b6100bc610399565b6040516100c99190611318565b60405180910390f35b6100ec60048036038101906100e791906113ce565b6103bd565b6040516100f9919061143d565b60405180910390f35b61011c60048036038101906101179190611490565b6107c6565b005b610138600480360381019061013391906114d0565b610b86565b005b610154600480360381019061014f9190611530565b610d7d565b60405161016a9a99989796959493929190611673565b60405180910390f35b61018d60048036038101906101889190611530565b610f3b565b60405161019a9190611884565b60405180910390f35b6101ab6111b7565b6040516101b89190611905565b60405180910390f35b6101c96111db565b6040516101d6919061143d565b60405180910390f35b60008054906101000a900473ffffffffffffffffffffffffffffffffffffffff1673ffffffffffffffffffffffffffffffffffffffff163373ffffffffffffffffffffffffffffffffffffffff161461026d576040517f08c379a00000000000000000000000000000000000000000000000000000000081526004016102649061196c565b60405180910390fd5b600073ffffffffffffffffffffffffffffffffffffffff168173ffffffffffffffffffffffffffffffffffffffff16036102dc576040517f08c379a00000000000000000000000000000000000000000000000000000000081526004016102d3906119d8565b60405180910390fd5b8073ffffffffffffffffffffffffffffffffffffffff1660008054906101000a900473ffffffffffffffffffffffffffffffffffffffff1673ffffffffffffffffffffffffffffffffffffffff167f8292fce18fa69edf4db7b94ea2e58241df0ae57f97e0a6c9b29067028bf92d7660405160405180910390a3806000806101000a81548173ffffffffffffffffffffffffffffffffffffffff021916908373ffffffffffffffffffffffffffffffffffffffff16021790555050565b60008054906101000a900473ffffffffffffffffffffffffffffffffffffffff1681565b6000808484905011610404576040517f08c379a00000000000000000000000000000000000000000000000000000000081526004016103fb90611a44565b60405180910390fd5b60008211610447576040517f08c379a000000000000000000000000000000000000000000000000000000000815260040161043e90611ab0565b60405180910390fd5b6001600081548092919061045a90611aff565b91905055905060007f000000000000000000000000000000000000000000000000000000000000000073ffffffffffffffffffffffffffffffffffffffff166323b872dd3330866040518463ffffffff1660e01b81526004016104bf93929190611b47565b6020604051808303816000875af11580156104de573d6000803e3d6000fd5b505050506040513d601f19601f820116820180604052508101906105029190611b93565b905080610544576040517f08c379a000000000000000000000000000000000000000000000000000000000815260040161053b90611c0c565b60405180910390fd5b6040518061014001604052808381526020013373ffffffffffffffffffffffffffffffffffffffff16815260200186868080601f016020809104026020016040519081016040528093929190818152602001838380828437600081840152601f19601f820116905080830192505050505050508152602001848152602001600060028111156105d6576105d56115ed565b5b8152602001600073ffffffffffffffffffffffffffffffffffffffff1681526020016040518060200160405280600081525081526020016000151581526020014281526020016000815250600260008481526020019081526020016000206000820151816000015560208201518160010160006101000a81548173ffffffffffffffffffffffffffffffffffffffff021916908373ffffffffffffffffffffffffffffffffffffffff160217905550604082015181600201908161069a9190611e5d565b506060820151816003015560808201518160040160006101000a81548160ff021916908360028111156106d0576106cf6115ed565b5b021790555060a08201518160040160016101000a81548173ffffffffffffffffffffffffffffffffffffffff021916908373ffffffffffffffffffffffffffffffffffffffff16021790555060c08201518160050190816107319190611e5d565b5060e08201518160060160006101000a81548160ff021916908315150217905550610100820151816007015561012082015181600801559050503373ffffffffffffffffffffffffffffffffffffffff16827faa830c985894057f0d100743defcad006f0a1abc40d080c9a23acc9a811068498588886040516107b693929190611f6b565b60405180910390a3509392505050565b60008054906101000a900473ffffffffffffffffffffffffffffffffffffffff1673ffffffffffffffffffffffffffffffffffffffff163373ffffffffffffffffffffffffffffffffffffffff1614610854576040517f08c379a000000000000000000000000000000000000000000000000000000000815260040161084b9061196c565b60405180910390fd5b600060026000848152602001908152602001600020905060008160000154036108b2576040517f08c379a00000000000000000000000000000000000000000000000000000000081526004016108a990611fe9565b60405180910390fd5b600160028111156108c6576108c56115ed565b5b8160040160009054906101000a900460ff1660028111156108ea576108e96115ed565b5b1461092a576040517f08c379a000000000000000000000000000000000000000000000000000000000815260040161092190612055565b60405180910390fd5b60028160040160006101000a81548160ff02191690836002811115610952576109516115ed565b5b0217905550818160060160006101000a81548160ff0219169083151502179055504281600801819055506000826109ad578160010160009054906101000a900473ffffffffffffffffffffffffffffffffffffffff166109d3565b8160040160019054906101000a900473ffffffffffffffffffffffffffffffffffffffff165b9050600073ffffffffffffffffffffffffffffffffffffffff168173ffffffffffffffffffffffffffffffffffffffff1603610a44576040517f08c379a0000000000000000000000000000000000000000000000000000000008152600401610a3b906120c1565b60405180910390fd5b60007f000000000000000000000000000000000000000000000000000000000000000073ffffffffffffffffffffffffffffffffffffffff1663a9059cbb8385600301546040518363ffffffff1660e01b8152600401610aa59291906120e1565b6020604051808303816000875af1158015610ac4573d6000803e3d6000fd5b505050506040513d601f19601f82011682018060405250810190610ae89190611b93565b905080610b2a576040517f08c379a0000000000000000000000000000000000000000000000000000000008152600401610b2190612156565b60405180910390fd5b8173ffffffffffffffffffffffffffffffffffffffff16857f598408ade542cc26aa0d3a48d0b1eab7e8544441794df320d8961995725a815a868660030154604051610b77929190612176565b60405180910390a35050505050565b60006002600085815260200190815260200160002090506000816000015403610be4576040517f08c379a0000000000000000000000000000000000000000000000000000000008152600401610bdb90611fe9565b60405180910390fd5b60006002811115610bf857610bf76115ed565b5b8160040160009054906101000a900460ff166002811115610c1c57610c1b6115ed565b5b14610c5c576040517f08c379a0000000000000000000000000000000000000000000000000000000008152600401610c53906121eb565b60405180910390fd5b60008383905011610ca2576040517f08c379a0000000000000000000000000000000000000000000000000000000008152600401610c9990612257565b60405180910390fd5b60018160040160006101000a81548160ff02191690836002811115610cca57610cc96115ed565b5b0217905550338160040160016101000a81548173ffffffffffffffffffffffffffffffffffffffff021916908373ffffffffffffffffffffffffffffffffffffffff1602179055508282826005019182610d25929190612282565b503373ffffffffffffffffffffffffffffffffffffffff16847fa90ae9720245855cd0178118b70cc1ee497003d06d996ee5c304a19e5b25d9158585604051610d6f929190612352565b60405180910390a350505050565b60026020528060005260406000206000915090508060000154908060010160009054906101000a900473ffffffffffffffffffffffffffffffffffffffff1690806002018054610dcc90611c8a565b80601f0160208091040260200160405190810160405280929190818152602001828054610df890611c8a565b8015610e455780601f10610e1a57610100808354040283529160200191610e45565b820191906000526020600020905b815481529060010190602001808311610e2857829003601f168201915b5050505050908060030154908060040160009054906101000a900460ff16908060040160019054906101000a900473ffffffffffffffffffffffffffffffffffffffff1690806005018054610e9990611c8a565b80601f0160208091040260200160405190810160405280929190818152602001828054610ec590611c8a565b8015610f125780601f10610ee757610100808354040283529160200191610f12565b820191906000526020600020905b815481529060010190602001808311610ef557829003601f168201915b5050505050908060060160009054906101000a900460ff1690806007015490806008015490508a565b610f436111e1565b6002600083815260200190815260200160002060405180610140016040529081600082015481526020016001820160009054906101000a900473ffffffffffffffffffffffffffffffffffffffff1673ffffffffffffffffffffffffffffffffffffffff1673ffffffffffffffffffffffffffffffffffffffff168152602001600282018054610fd290611c8a565b80601f0160208091040260200160405190810160405280929190818152602001828054610ffe90611c8a565b801561104b5780601f106110205761010080835404028352916020019161104b565b820191906000526020600020905b81548152906001019060200180831161102e57829003601f168201915b50505050508152602001600382015481526020016004820160009054906101000a900460ff166002811115611083576110826115ed565b5b6002811115611095576110946115ed565b5b81526020016004820160019054906101000a900473ffffffffffffffffffffffffffffffffffffffff1673ffffffffffffffffffffffffffffffffffffffff1673ffffffffffffffffffffffffffffffffffffffff1681526020016005820180546110ff90611c8a565b80601f016020809104026020016040519081016040528092919081815260200182805461112b90611c8a565b80156111785780601f1061114d57610100808354040283529160200191611178565b820191906000526020600020905b81548152906001019060200180831161115b57829003601f168201915b505050505081526020016006820160009054906101000a900460ff16151515158152602001600782015481526020016008820154815250509050919050565b7f000000000000000000000000000000000000000000000000000000000000000081565b60015481565b60405180610140016040528060008152602001600073ffffffffffffffffffffffffffffffffffffffff168152602001606081526020016000815260200160006002811115611233576112326115ed565b5b8152602001600073ffffffffffffffffffffffffffffffffffffffff1681526020016060815260200160001515815260200160008152602001600081525090565b600080fd5b600080fd5b600073ffffffffffffffffffffffffffffffffffffffff82169050919050565b60006112a98261127e565b9050919050565b6112b98161129e565b81146112c457600080fd5b50565b6000813590506112d6816112b0565b92915050565b6000602082840312156112f2576112f1611274565b5b6000611300848285016112c7565b91505092915050565b6113128161129e565b82525050565b600060208201905061132d6000830184611309565b92915050565b600080fd5b600080fd5b600080fd5b60008083601f84011261135857611357611333565b5b8235905067ffffffffffffffff81111561137557611374611338565b5b6020830191508360018202830111156113915761139061133d565b5b9250929050565b6000819050919050565b6113ab81611398565b81146113b657600080fd5b50565b6000813590506113c8816113a2565b92915050565b6000806000604084860312156113e7576113e6611274565b5b600084013567ffffffffffffffff81111561140557611404611279565b5b61141186828701611342565b93509350506020611424868287016113b9565b9150509250925092565b61143781611398565b82525050565b6000602082019050611452600083018461142e565b92915050565b60008115159050919050565b61146d81611458565b811461147857600080fd5b50565b60008135905061148a81611464565b92915050565b600080604083850312156114a7576114a6611274565b5b60006114b5858286016113b9565b92505060206114c68582860161147b565b9150509250929050565b6000806000604084860312156114e9576114e8611274565b5b60006114f7868287016113b9565b935050602084013567ffffffffffffffff81111561151857611517611279565b5b61152486828701611342565b92509250509250925092565b60006020828403121561154657611545611274565b5b6000611554848285016113b9565b91505092915050565b600081519050919050565b600082825260208201905092915050565b60005b8381101561159757808201518184015260208101905061157c565b60008484015250505050565b6000601f19601f8301169050919050565b60006115bf8261155d565b6115c98185611568565b93506115d9818560208601611579565b6115e2816115a3565b840191505092915050565b7f4e487b7100000000000000000000000000000000000000000000000000000000600052602160045260246000fd5b6003811061162d5761162c6115ed565b5b50565b600081905061163e8261161c565b919050565b600061164e82611630565b9050919050565b61165e81611643565b82525050565b61166d81611458565b82525050565b600061014082019050611689600083018d61142e565b611696602083018c611309565b81810360408301526116a8818b6115b4565b90506116b7606083018a61142e565b6116c46080830189611655565b6116d160a0830188611309565b81810360c08301526116e381876115b4565b90506116f260e0830186611664565b61170061010083018561142e565b61170e61012083018461142e565b9b9a5050505050505050505050565b61172681611398565b82525050565b6117358161129e565b82525050565b600082825260208201905092915050565b60006117578261155d565b611761818561173b565b9350611771818560208601611579565b61177a816115a3565b840191505092915050565b61178e81611643565b82525050565b61179d81611458565b82525050565b6000610140830160008301516117bc600086018261171d565b5060208301516117cf602086018261172c565b50604083015184820360408601526117e7828261174c565b91505060608301516117fc606086018261171d565b50608083015161180f6080860182611785565b5060a083015161182260a086018261172c565b5060c083015184820360c086015261183a828261174c565b91505060e083015161184f60e0860182611794565b5061010083015161186461010086018261171d565b5061012083015161187961012086018261171d565b508091505092915050565b6000602082019050818103600083015261189e81846117a3565b905092915050565b6000819050919050565b60006118cb6118c66118c18461127e565b6118a6565b61127e565b9050919050565b60006118dd826118b0565b9050919050565b60006118ef826118d2565b9050919050565b6118ff816118e4565b82525050565b600060208201905061191a60008301846118f6565b92915050565b7f6e6f74206f776e65720000000000000000000000000000000000000000000000600082015250565b6000611956600983611568565b915061196182611920565b602082019050919050565b6000602082019050818103600083015261198581611949565b9050919050565b7f6f776e65723d3000000000000000000000000000000000000000000000000000600082015250565b60006119c2600783611568565b91506119cd8261198c565b602082019050919050565b600060208201905081810360008301526119f1816119b5565b9050919050565b7f697373756555726c000000000000000000000000000000000000000000000000600082015250565b6000611a2e600883611568565b9150611a39826119f8565b602082019050919050565b60006020820190508181036000830152611a5d81611a21565b9050919050565b7f616d6f756e740000000000000000000000000000000000000000000000000000600082015250565b6000611a9a600683611568565b9150611aa582611a64565b602082019050919050565b60006020820190508181036000830152611ac981611a8d565b9050919050565b7f4e487b7100000000000000000000000000000000000000000000000000000000600052601160045260246000fd5b6000611b0a82611398565b91507fffffffffffffffffffffffffffffffffffffffffffffffffffffffffffffffff8203611b3c57611b3b611ad0565b5b600182019050919050565b6000606082019050611b5c6000830186611309565b611b696020830185611309565b611b76604083018461142e565b949350505050565b600081519050611b8d81611464565b92915050565b600060208284031215611ba957611ba8611274565b5b6000611bb784828501611b7e565b91505092915050565b7f7472616e7366657246726f6d206661696c656400000000000000000000000000600082015250565b6000611bf6601383611568565b9150611c0182611bc0565b602082019050919050565b60006020820190508181036000830152611c2581611be9565b9050919050565b7f4e487b7100000000000000000000000000000000000000000000000000000000600052604160045260246000fd5b7f4e487b7100000000000000000000000000000000000000000000000000000000600052602260045260246000fd5b60006002820490506001821680611ca257607f821691505b602082108103611cb557611cb4611c5b565b5b50919050565b60008190508160005260206000209050919050565b60006020601f8301049050919050565b600082821b905092915050565b600060088302611d1d7fffffffffffffffffffffffffffffffffffffffffffffffffffffffffffffffff82611ce0565b611d278683611ce0565b95508019841693508086168417925050509392505050565b6000611d5a611d55611d5084611398565b6118a6565b611398565b9050919050565b6000819050919050565b611d7483611d3f565b611d88611d8082611d61565b848454611ced565b825550505050565b600090565b611d9d611d90565b611da8818484611d6b565b505050565b5b81811015611dcc57611dc1600082611d95565b600181019050611dae565b5050565b601f821115611e1157611de281611cbb565b611deb84611cd0565b81016020851015611dfa578190505b611e0e611e0685611cd0565b830182611dad565b50505b505050565b600082821c905092915050565b6000611e3460001984600802611e16565b1980831691505092915050565b6000611e4d8383611e23565b9150826002028217905092915050565b611e668261155d565b67ffffffffffffffff811115611e7f57611e7e611c2c565b5b611e898254611c8a565b611e94828285611dd0565b600060209050601f831160018114611ec75760008415611eb5578287015190505b611ebf8582611e41565b865550611f27565b601f198416611ed586611cbb565b60005b82811015611efd57848901518255600182019150602085019450602081019050611ed8565b86831015611f1a5784890151611f16601f891682611e23565b8355505b6001600288020188555050505b505050505050565b82818337600083830152505050565b6000611f4a8385611568565b9350611f57838584611f2f565b611f60836115a3565b840190509392505050565b6000604082019050611f80600083018661142e565b8181036020830152611f93818486611f3e565b9050949350505050565b7f626f756e7479206e6f7420666f756e6400000000000000000000000000000000600082015250565b6000611fd3601083611568565b9150611fde82611f9d565b602082019050919050565b6000602082019050818103600083015261200281611fc6565b9050919050565b7f6e6f74207375626d697474656400000000000000000000000000000000000000600082015250565b600061203f600d83611568565b915061204a82612009565b602082019050919050565b6000602082019050818103600083015261206e81612032565b9050919050565b7f7061796f75743d30000000000000000000000000000000000000000000000000600082015250565b60006120ab600883611568565b91506120b682612075565b602082019050919050565b600060208201905081810360008301526120da8161209e565b9050919050565b60006040820190506120f66000830185611309565b612103602083018461142e565b9392505050565b7f7472616e73666572206661696c65640000000000000000000000000000000000600082015250565b6000612140600f83611568565b915061214b8261210a565b602082019050919050565b6000602082019050818103600083015261216f81612133565b9050919050565b600060408201905061218b6000830185611664565b612198602083018461142e565b9392505050565b7f6e6f74206f70656e000000000000000000000000000000000000000000000000600082015250565b60006121d5600883611568565b91506121e08261219f565b602082019050919050565b60006020820190508181036000830152612204816121c8565b9050919050565b7f707255726c000000000000000000000000000000000000000000000000000000600082015250565b6000612241600583611568565b915061224c8261220b565b602082019050919050565b6000602082019050818103600083015261227081612234565b9050919050565b600082905092915050565b61228c8383612277565b67ffffffffffffffff8111156122a5576122a4611c2c565b5b6122af8254611c8a565b6122ba828285611dd0565b6000601f8311600181146122e957600084156122d7578287013590505b6122e18582611e41565b865550612349565b601f1984166122f786611cbb565b60005b8281101561231f578489013582556001820191506020850194506020810190506122fa565b8683101561233c5784890135612338601f891682611e23565b8355505b6001600288020188555050505b50505050505050565b6000602082019050818103600083015261236d818486611f3e565b9050939250505056fea2646970667358221220ce8821152a536972ffcd5902e50763f1d39acc978f5717dcd43d0fff126658bd64736f6c63430008180033",
  "linkReferences": {},
  "deployedLinkReferences": {}
}