{
  "_format": "hh-sol-artifact-1",
  "contractName": "BountyEscrowNative",
  "sourceName": "contracts/BountyEscrowNative.sol",
  "abi": [
    {
      "inputs": [
        {
          "internalType": "address",
          "name": "initialOwner",
          "type": "address"
        }
      ],
      "stateMutability": "nonpayable",
      "type": "constructor"
    },
    {
      "anonymous": false,
      "inputs": [
        {
          "indexed": true,
          "internalType": "uint256",
          "name": "bountyId",
          "type": "uint256"
        },
        {
          "indexed": true,
          "internalType": "address",
          "name": "creator",
          "type": "address"
        },
        {
          "indexed": false,
          "internalType": "uint256",
          "name": "amountWei",
          "type": "uint256"
        },
        {
          "indexed": false,
          "internalType": "string",
          "name": "issueUrl",
          "type": "string"
        }
      ],
      "name": "BountyCreated",
      "type": "event"
    },
    {
      "anonymous": false,
      "inputs": [
        {
          "indexed": true,
          "internalType": "uint256",
          "name": "bountyId",
          "type": "uint256"
        },
        {
          "indexed": false,
          "internalType": "bool",
          "name": "approved",
          "type": "bool"
        },
        {
          "indexed": true,
          "internalType": "address",
          "name": "payoutTo",
          "type": "address"
        },
        {
          "indexed": false,
          "internalType": "uint256",
          "name": "amountWei",
          "type": "uint256"
        }
      ],
      "name": "BountyResolved",
      "type": "event"
    },
    {
      "anonymous": false,
      "inputs": [
        {
          "indexed": true,
          "internalType": "address",
          "name": "previousOwner",
          "type": "address"
        },
        {
          "indexed": true,
          "internalType": "address",
          "name": "newOwner",
          "type": "address"
        }
      ],
      "name": "OwnerUpdated",
      "type": "event"
    },
    {
      "anonymous": false,
      "inputs": [
        {
          "indexed": true,
          "internalType": "uint256",
          "name": "bountyId",
          "type": "uint256"
        },
        {
          "indexed": true,
          "internalType": "address",
          "name": "solver",
          "type": "address"
        },
        {
          "indexed": false,
          "internalType": "string",
          "name": "prUrl",
          "type": "string"
        }
      ],
      "name": "SolutionSubmitted",
      "type": "event"
    },
    {
      "inputs": [
        {
          "internalType": "uint256",
          "name": "",
          "type": "uint256"
        }
      ],
      "name": "bounties",
      "outputs": [
        {
          "internalType": "uint256",
          "name": "id",
          "type": "uint256"
        },
        {
          "internalType": "address",
          "name": "creator",
          "type": "address"
        },
        {
          "internalType": "string",
          "name": "issueUrl",
          "type": "string"
        },
        {
          "internalType": "uint256",
          "name": "amountWei",
          "type": "uint256"
        },
        {
          "internalType": "enum BountyEscrowNative.Status",
          "name": "status",
          "type": "uint8"
        },
        {
          "internalType": "address",
          "name": "solver",
          "type": "address"
        },
        {
          "internalType": "string",
          "name": "prUrl",
          "type": "string"
        },
        {
          "internalType": "bool",
          "name": "approved",
          "type": "bool"
        },
        {
          "internalType": "uint256",
          "name": "createdAt",
          "type": "uint256"
        },
        {
          "internalType": "uint256",
          "name": "resolvedAt",
          "type": "uint256"
        }
      ],
      "stateMutability": "view",
      "type": "function"
    },
    {
      "inputs": [
        {
          "internalType": "string",
          "name": "issueUrl",
          "type": "string"
        }
      ],
      "name": "createBounty",
      "outputs": [
        {
          "internalType": "uint256",
          "name": "bountyId",
          "type": "uint256"
        }
      ],
      "stateMutability": "payable",
      "type": "function"
    },
    {
      "inputs": [
        {
          "internalType": "uint256",
          "name": "bountyId",
          "type": "uint256"
        }
      ],
      "name": "getBounty",
      "outputs": [
        {
          "components": [
            {
              "internalType": "uint256",
              "name": "id",
              "type": "uint256"
            },
            {
              "internalType": "address",
              "name": "creator",
              "type": "address"
            },
            {
              "internalType": "string",
              "name": "issueUrl",
              "type": "string"
            },
            {
              "internalType": "uint256",
              "name": "amountWei",
              "type": "uint256"
            },
            {
              "internalType": "enum BountyEscrowNative.Status",
              "name": "status",
              "type": "uint8"
            },
            {
              "internalType": "address",
              "name": "solver",
              "type": "address"
            },
            {
              "internalType": "string",
              "name": "prUrl",
              "type": "string"
            },
            {
              "internalType": "bool",
              "name": "approved",
              "type": "bool"
            },
            {
              "internalType": "uint256",
              "name": "createdAt",
              "type": "uint256"
            },
            {
              "internalType": "uint256",
              "name": "resolvedAt",
              "type": "uint256"
            }
          ],
          "internalType": "struct BountyEscrowNative.Bounty",
          "name": "",
          "type": "tuple"
        }
      ],
      "stateMutability": "view",
      "type": "function"
    },
    {
      "inputs": [],
      "name": "nextBountyId",
      "outputs": [
        {
          "internalType": "uint256",
          "name": "",
          "type": "uint256"
        }
      ],
      "stateMutability": "view",
      "type": "function"
    },
    {
      "inputs": [],
      "name": "owner",
      "outputs": [
        {
          "internalType": "address",
          "name": "",
          "type": "address"
        }
      ],
      "stateMutability": "view",
      "type": "function"
    },
    {
      "inputs": [
        {
          "internalType": "uint256",
          "name": "bountyId",
          "type": "uint256"
        },
        {
          "internalType": "bool",
          "name": "approved",
          "type": "bool"
        }
      ],
      "name": "resolveBounty",
      "outputs": [],
      "stateMutability": "nonpayable",
      "type": "function"
    },
    {
      "inputs": [
        {
          "internalType": "address",
          "name": "newOwner",
          "type": "address"
        }
      ],
      "name": "setOwner",
      "outputs": [],
      "stateMutability": "nonpayable",
      "type": "function"
    },
    {
      "inputs": [
        {
          "internalType": "uint256",
          "name": "bountyId",
          "type": "uint256"
        },
        {
          "internalType": "string",
          "name": "prUrl",
          "type": "string"
        }
      ],
      "name": "submitSolution",
      "outputs": [],
      "stateMutability": "nonpayable",
      "type": "function"
    }
  ],
  "bytecode": "0x6080604052600180553480156200001557600080fd5b50604051620023753803806200237583398181016040528101906200003b91906200015e565b600073ffffffffffffffffffffffffffffffffffffffff168173ffffffffffffffffffffffffffffffffffffffff1603620000ad576040517f08c379a0000000000000000000000000000000000000000000000000000000008152600401620000a490620001f1565b60405180910390fd5b806000806101000a81548173ffffffffffffffffffffffffffffffffffffffff021916908373ffffffffffffffffffffffffffffffffffffffff1602179055505062000213565b600080fd5b600073ffffffffffffffffffffffffffffffffffffffff82169050919050565b60006200012682620000f9565b9050919050565b620001388162000119565b81146200014457600080fd5b50565b60008151905062000158816200012d565b92915050565b600060208284031215620001775762000176620000f4565b5b6000620001878482850162000147565b91505092915050565b600082825260208201905092915050565b7f6f776e65723d3000000000000000000000000000000000000000000000000000600082015250565b6000620001d960078362000190565b9150620001e682620001a1565b602082019050919050565b600060208201905081810360008301526200020c81620001ca565b9050919050565b61215280620002236000396000f3fe60806040526004361061007b5760003560e01c8063d3b5c0161161004e578063d3b5c0161461012d578063dc2f874414610156578063ee8c4bbf1461019c578063fd14fad4146101d95761007b565b806306868c4b1461008057806313af4035146100b05780638da5cb5b146100d9578063cadde05f14610104575b600080fd5b61009a600480360381019061009591906111d4565b610204565b6040516100a7919061123a565b60405180910390f35b3480156100bc57600080fd5b506100d760048036038101906100d291906112b3565b610527565b005b3480156100e557600080fd5b506100ee6106e1565b6040516100fb91906112ef565b60405180910390f35b34801561011057600080fd5b5061012b6004803603810190610126919061136e565b610705565b005b34801561013957600080fd5b50610154600480360381019061014f91906113ae565b610a9b565b005b34801561016257600080fd5b5061017d6004803603810190610178919061140e565b610c92565b6040516101939a99989796959493929190611551565b60405180910390f35b3480156101a857600080fd5b506101c360048036038101906101be919061140e565b610e50565b6040516101d09190611762565b60405180910390f35b3480156101e557600080fd5b506101ee6110cc565b6040516101fb919061123a565b60405180910390f35b600080838390501161024b576040517f08c379a0000000000000000000000000000000000000000000000000000000008152600401610242906117d0565b60405180910390fd5b6000341161028e576040517f08c379a00000000000000000000000000000000000000000000000000000000081526004016102859061183c565b60405180910390fd5b600160008154809291906102a19061188b565b9190505590506040518061014001604052808281526020013373ffffffffffffffffffffffffffffffffffffffff16815260200184848080601f016020809104026020016040519081016040528093929190818152602001838380828437600081840152601f19601f82011690508083019250505050505050815260200134815260200160006002811115610339576103386114cb565b5b8152602001600073ffffffffffffffffffffffffffffffffffffffff1681526020016040518060200160405280600081525081526020016000151581526020014281526020016000815250600260008381526020019081526020016000206000820151816000015560208201518160010160006101000a81548173ffffffffffffffffffffffffffffffffffffffff021916908373ffffffffffffffffffffffffffffffffffffffff16021790555060408201518160020190816103fd9190611b0e565b506060820151816003015560808201518160040160006101000a81548160ff02191690836002811115610433576104326114cb565b5b021790555060a08201518160040160016101000a81548173ffffffffffffffffffffffffffffffffffffffff021916908373ffffffffffffffffffffffffffffffffffffffff16021790555060c08201518160050190816104949190611b0e565b5060e08201518160060160006101000a81548160ff021916908315150217905550610100820151816007015561012082015181600801559050503373ffffffffffffffffffffffffffffffffffffffff16817faa830c985894057f0d100743defcad006f0a1abc40d080c9a23acc9a8110684934868660405161051993929190611c1c565b60405180910390a392915050565b60008054906101000a900473ffffffffffffffffffffffffffffffffffffffff1673ffffffffffffffffffffffffffffffffffffffff163373ffffffffffffffffffffffffffffffffffffffff16146105b5576040517f08c379a00000000000000000000000000000000000000000000000000000000081526004016105ac90611c9a565b60405180910390fd5b600073ffffffffffffffffffffffffffffffffffffffff168173ffffffffffffffffffffffffffffffffffffffff1603610624576040517f08c379a000000000000000000000000000000000000000000000000000000000815260040161061b90611d06565b60405180910390fd5b8073ffffffffffffffffffffffffffffffffffffffff1660008054906101000a900473ffffffffffffffffffffffffffffffffffffffff1673ffffffffffffffffffffffffffffffffffffffff167f8292fce18fa69edf4db7b94ea2e58241df0ae57f97e0a6c9b29067028bf92d7660405160405180910390a3806000806101000a81548173ffffffffffffffffffffffffffffffffffffffff021916908373ffffffffffffffffffffffffffffffffffffffff16021790555050565b60008054906101000a900473ffffffffffffffffffffffffffffffffffffffff1681565b60008054906101000a900473ffffffffffffffffffffffffffffffffffffffff1673ffffffffffffffffffffffffffffffffffffffff163373ffffffffffffffffffffffffffffffffffffffff1614610793576040517f08c379a000000000000000000000000000000000000000000000000000000000815260040161078a90611c9a565b60405180910390fd5b600060026000848152602001908152602001600020905060008160000154036107f1576040517f08c379a00000000000000000000000000000000000000000000000000000000081526004016107e890611d72565b60405180910390fd5b60016002811115610805576108046114cb565b5b8160040160009054906101000a900460ff166002811115610829576108286114cb565b5b14610869576040517f08c379a000000000000000000000000000000000000000000000000000000000815260040161086090611dde565b60405180910390fd5b60028160040160006101000a81548160ff02191690836002811115610891576108906114cb565b5b0217905550818160060160006101000a81548160ff0219169083151502179055504281600801819055506000826108ec578160010160009054906101000a900473ffffffffffffffffffffffffffffffffffffffff16610912565b8160040160019054906101000a900473ffffffffffffffffffffffffffffffffffffffff165b9050600073ffffffffffffffffffffffffffffffffffffffff168173ffffffffffffffffffffffffffffffffffffffff1603610983576040517f08c379a000000000000000000000000000000000000000000000000000000000815260040161097a90611e4a565b60405180910390fd5b6000826003015490506000836003018190555060008273ffffffffffffffffffffffffffffffffffffffff16826040516109bc90611e9b565b60006040518083038185875af1925050503d80600081146109f9576040519150601f19603f3d011682016040523d82523d6000602084013e6109fe565b606091505b5050905080610a42576040517f08c379a0000000000000000000000000000000000000000000000000000000008152600401610a3990611efc565b60405180910390fd5b8273ffffffffffffffffffffffffffffffffffffffff16867f598408ade542cc26aa0d3a48d0b1eab7e8544441794df320d8961995725a815a8785604051610a8b929190611f1c565b60405180910390a3505050505050565b60006002600085815260200190815260200160002090506000816000015403610af9576040517f08c379a0000000000000000000000000000000000000000000000000000000008152600401610af090611d72565b60405180910390fd5b60006002811115610b0d57610b0c6114cb565b5b8160040160009054906101000a900460ff166002811115610b3157610b306114cb565b5b14610b71576040517f08c379a0000000000000000000000000000000000000000000000000000000008152600401610b6890611f91565b60405180910390fd5b60008383905011610bb7576040517f08c379a0000000000000000000000000000000000000000000000000000000008152600401610bae90611ffd565b60405180910390fd5b60018160040160006101000a81548160ff02191690836002811115610bdf57610bde6114cb565b5b0217905550338160040160016101000a81548173ffffffffffffffffffffffffffffffffffffffff021916908373ffffffffffffffffffffffffffffffffffffffff1602179055508282826005019182610c3a929190612028565b503373ffffffffffffffffffffffffffffffffffffffff16847fa90ae9720245855cd0178118b70cc1ee497003d06d996ee5c304a19e5b25d9158585604051610c849291906120f8565b60405180910390a350505050565b60026020528060005260406000206000915090508060000154908060010160009054906101000a900473ffffffffffffffffffffffffffffffffffffffff1690806002018054610ce190611931565b80601f0160208091040260200160405190810160405280929190818152602001828054610d0d90611931565b8015610d5a5780601f10610d2f57610100808354040283529160200191610d5a565b820191906000526020600020905b815481529060010190602001808311610d3d57829003601f168201915b5050505050908060030154908060040160009054906101000a900460ff16908060040160019054906101000a900473ffffffffffffffffffffffffffffffffffffffff1690806005018054610dae90611931565b80601f0160208091040260200160405190810160405280929190818152602001828054610dda90611931565b8015610e275780601f10610dfc57610100808354040283529160200191610e27565b820191906000526020600020905b815481529060010190602001808311610e0a57829003601f168201915b5050505050908060060160009054906101000a900460ff1690806007015490806008015490508a565b610e586110d2565b6002600083815260200190815260200160002060405180610140016040529081600082015481526020016001820160009054906101000a900473ffffffffffffffffffffffffffffffffffffffff1673ffffffffffffffffffffffffffffffffffffffff1673ffffffffffffffffffffffffffffffffffffffff168152602001600282018054610ee790611931565b80601f0160208091040260200160405190810160405280929190818152602001828054610f1390611931565b8015610f605780601f10610f3557610100808354040283529160200191610f60565b820191906000526020600020905b815481529060010190602001808311610f4357829003601f168201915b50505050508152602001600382015481526020016004820160009054906101000a900460ff166002811115610f9857610f976114cb565b5b6002811115610faa57610fa96114cb565b5b81526020016004820160019054906101000a900473ffffffffffffffffffffffffffffffffffffffff1673ffffffffffffffffffffffffffffffffffffffff1673ffffffffffffffffffffffffffffffffffffffff16815260200160058201805461101490611931565b80601f016020809104026020016040519081016040528092919081815260200182805461104090611931565b801561108d5780601f106110625761010080835404028352916020019161108d565b820191906000526020600020905b81548152906001019060200180831161107057829003601f168201915b505050505081526020016006820160009054906101000a900460ff16151515158152602001600782015481526020016008820154815250509050919050565b60015481565b60405180610140016040528060008152602001600073ffffffffffffffffffffffffffffffffffffffff168152602001606081526020016000815260200160006002811115611124576111236114cb565b5b8152602001600073ffffffffffffffffffffffffffffffffffffffff1681526020016060815260200160001515815260200160008152602001600081525090565b600080fd5b600080fd5b600080fd5b600080fd5b600080fd5b60008083601f8401126111945761119361116f565b5b8235905067ffffffffffffffff8111156111b1576111b0611174565b5b6020830191508360018202830111156111cd576111cc611179565b5b9250929050565b600080602083850312156111eb576111ea611165565b5b600083013567ffffffffffffffff8111156112095761120861116a565b5b6112158582860161117e565b92509250509250929050565b6000819050919050565b61123481611221565b82525050565b600060208201905061124f600083018461122b565b92915050565b600073ffffffffffffffffffffffffffffffffffffffff82169050919050565b600061128082611255565b9050919050565b61129081611275565b811461129b57600080fd5b50565b6000813590506112ad81611287565b92915050565b6000602082840312156112c9576112c8611165565b5b60006112d78482850161129e565b91505092915050565b6112e981611275565b82525050565b600060208201905061130460008301846112e0565b92915050565b61131381611221565b811461131e57600080fd5b50565b6000813590506113308161130a565b92915050565b60008115159050919050565b61134b81611336565b811461135657600080fd5b50565b60008135905061136881611342565b92915050565b6000806040838503121561138557611384611165565b5b600061139385828601611321565b92505060206113a485828601611359565b9150509250929050565b6000806000604084860312156113c7576113c6611165565b5b60006113d586828701611321565b935050602084013567ffffffffffffffff8111156113f6576113f561116a565b5b6114028682870161117e565b92509250509250925092565b60006020828403121561142457611423611165565b5b600061143284828501611321565b91505092915050565b600081519050919050565b600082825260208201905092915050565b60005b8381101561147557808201518184015260208101905061145a565b60008484015250505050565b6000601f19601f8301169050919050565b600061149d8261143b565b6114a78185611446565b93506114b7818560208601611457565b6114c081611481565b840191505092915050565b7f4e487b7100000000000000000000000000000000000000000000000000000000600052602160045260246000fd5b6003811061150b5761150a6114cb565b5b50565b600081905061151c826114fa565b919050565b600061152c8261150e565b9050919050565b61153c81611521565b82525050565b61154b81611336565b82525050565b600061014082019050611567600083018d61122b565b611574602083018c6112e0565b8181036040830152611586818b611492565b9050611595606083018a61122b565b6115a26080830189611533565b6115af60a08301886112e0565b81810360c08301526115c18187611492565b90506115d060e0830186611542565b6115de61010083018561122b565b6115ec61012083018461122b565b9b9a5050505050505050505050565b61160481611221565b82525050565b61161381611275565b82525050565b600082825260208201905092915050565b60006116358261143b565b61163f8185611619565b935061164f818560208601611457565b61165881611481565b840191505092915050565b61166c81611521565b82525050565b61167b81611336565b82525050565b60006101408301600083015161169a60008601826115fb565b5060208301516116ad602086018261160a565b50604083015184820360408601526116c5828261162a565b91505060608301516116da60608601826115fb565b5060808301516116ed6080860182611663565b5060a083015161170060a086018261160a565b5060c083015184820360c0860152611718828261162a565b91505060e083015161172d60e0860182611672565b506101008301516117426101008601826115fb565b506101208301516117576101208601826115fb565b508091505092915050565b6000602082019050818103600083015261177c8184611681565b905092915050565b7f697373756555726c000000000000000000000000000000000000000000000000600082015250565b60006117ba600883611446565b91506117c582611784565b602082019050919050565b600060208201905081810360008301526117e9816117ad565b9050919050565b7f616d6f756e743d30000000000000000000000000000000000000000000000000600082015250565b6000611826600883611446565b9150611831826117f0565b602082019050919050565b6000602082019050818103600083015261185581611819565b9050919050565b7f4e487b7100000000000000000000000000000000000000000000000000000000600052601160045260246000fd5b600061189682611221565b91507fffffffffffffffffffffffffffffffffffffffffffffffffffffffffffffffff82036118c8576118c761185c565b5b600182019050919050565b7f4e487b7100000000000000000000000000000000000000000000000000000000600052604160045260246000fd5b7f4e487b7100000000000000000000000000000000000000000000000000000000600052602260045260246000fd5b6000600282049050600182168061194957607f821691505b60208210810361195c5761195b611902565b5b50919050565b60008190508160005260206000209050919050565b60006020601f8301049050919050565b600082821b905092915050565b6000600883026119c47fffffffffffffffffffffffffffffffffffffffffffffffffffffffffffffffff82611987565b6119ce8683611987565b95508019841693508086168417925050509392505050565b6000819050919050565b6000611a0b611a06611a0184611221565b6119e6565b611221565b9050919050565b6000819050919050565b611a25836119f0565b611a39611a3182611a12565b848454611994565b825550505050565b600090565b611a4e611a41565b611a59818484611a1c565b505050565b5b81811015611a7d57611a72600082611a46565b600181019050611a5f565b5050565b601f821115611ac257611a9381611962565b611a9c84611977565b81016020851015611aab578190505b611abf611ab785611977565b830182611a5e565b50505b505050565b600082821c905092915050565b6000611ae560001984600802611ac7565b1980831691505092915050565b6000611afe8383611ad4565b9150826002028217905092915050565b611b178261143b565b67ffffffffffffffff811115611b3057611b2f6118d3565b5b611b3a8254611931565b611b45828285611a81565b600060209050601f831160018114611b785760008415611b66578287015190505b611b708582611af2565b865550611bd8565b601f198416611b8686611962565b60005b82811015611bae57848901518255600182019150602085019450602081019050611b89565b86831015611bcb5784890151611bc7601f891682611ad4565b8355505b6001600288020188555050505b505050505050565b82818337600083830152505050565b6000611bfb8385611446565b9350611c08838584611be0565b611c1183611481565b840190509392505050565b6000604082019050611c31600083018661122b565b8181036020830152611c44818486611bef565b9050949350505050565b7f6e6f74206f776e65720000000000000000000000000000000000000000000000600082015250565b6000611c84600983611446565b9150611c8f82611c4e565b602082019050919050565b60006020820190508181036000830152611cb381611c77565b9050919050565b7f6f776e65723d3000000000000000000000000000000000000000000000000000600082015250565b6000611cf0600783611446565b9150611cfb82611cba565b602082019050919050565b60006020820190508181036000830152611d1f81611ce3565b9050919050565b7f626f756e7479206e6f7420666f756e6400000000000000000000000000000000600082015250565b6000611d5c601083611446565b9150611d6782611d26565b602082019050919050565b60006020820190508181036000830152611d8b81611d4f565b9050919050565b7f6e6f74207375626d697474656400000000000000000000000000000000000000600082015250565b6000611dc8600d83611446565b9150611dd382611d92565b602082019050919050565b60006020820190508181036000830152611df781611dbb565b9050919050565b7f7061796f75743d30000000000000000000000000000000000000000000000000600082015250565b6000611e34600883611446565b9150611e3f82611dfe565b602082019050919050565b60006020820190508181036000830152611e6381611e27565b9050919050565b600081905092915050565b50565b6000611e85600083611e6a565b9150611e9082611e75565b600082019050919050565b6000611ea682611e78565b9150819050919050565b7f6e6174697665207472616e73666572206661696c656400000000000000000000600082015250565b6000611ee6601683611446565b9150611ef182611eb0565b602082019050919050565b60006020820190508181036000830152611f1581611ed9565b9050919050565b6000604082019050611f316000830185611542565b611f3e602083018461122b565b9392505050565b7f6e6f74206f70656e000000000000000000000000000000000000000000000000600082015250565b6000611f7b600883611446565b9150611f8682611f45565b602082019050919050565b60006020820190508181036000830152611faa81611f6e565b9050919050565b7f707255726c000000000000000000000000000000000000000000000000000000600082015250565b6000611fe7600583611446565b9150611ff282611fb1565b602082019050919050565b6000602082019050818103600083015261201681611fda565b9050919050565b600082905092915050565b612032838361201d565b67ffffffffffffffff81111561204b5761204a6118d3565b5b6120558254611931565b612060828285611a81565b6000601f83116001811461208f576000841561207d578287013590505b6120878582611af2565b8655506120ef565b601f19841661209d86611962565b60005b828110156120c5578489013582556001820191506020850194506020810190506120a0565b868310156120e257848901356120de601f891682611ad4565b8355505b6001600288020188555050505b50505050505050565b60006020820190508181036000830152612113818486611bef565b9050939250505056fea2646970667358221220499561c2ead97c46d0ff3f064a7ad00e628dbe6644451f50bdc3b9eb8a0c408064736f6c63430008180033",
  "linkReferences": {},
  "deployedLinkReferences": {}
}